:03000000020800F3
:0C080000787FE4F6D8FD758118020847E7
:10088C00E4F516F517C2A61209EA20A50A75160199
:10089C00D28C75150FC2A0E516640170EDAF17FE72
:1008AC001209B1E51575F00A84FFE51575F00A8497
:1008BC00E5F0FD7C00AB17120937AF90EFF4600E3A
:1008CC001208EA8F17E5176005D2A075151EE515FD
:0E08DC0070B8F516C28CF515F517C2A680ACE3
:03000B0002097B6C
:04097B00C0E0C0D048
:10097F00758CFC758A18C28D0514E5147002051369
:10098F00B4F407E513B40102C2A6C3E51494E8E575
:0D099F00139403400815157513007514001E
:0509AC00D0D0D0E032C4
:1009D500EF1FAC0670011E4C600A7D027CEFDCFE49
:0409E500DDFC80ECC9
:0109E90022EB
:1009EA005389F0438901758A18758CFCC28DD2A986
:0509FA00D2AFC2B922DA
:0F09FF000112000A083F065B4F666D7D077F6F90
:1009B1008F18C2A18508807F057E001209D5D2A1BA
:1009C100C2A274082518F8E6F5807F057E00120999
:0409D100D5D2A222B7
:100937008D18E51265186013E518C3940674809442
:10094700805008EF7005EB7002D2A6C2A374082F7F
:10095700F8E6F5807F057E001209D5D2A3C2A474FC
:10096700082518F8E6F5807F057E001209D5D2A480
:0409770085181222AB
:1008EA00AF90EF2481603E24C2603524DE602C2460
:1008FA00F0602324F8601A24FC601124FE600814B6
:10090A0070267518018021751802801C75180380DD
:10091A00177518048012751805800D751806800859
:0C092A007518078003751808AF187E00D0
:01093600229E
:10080C0002088CE493A3F8E493A34003F68001F26E
:10081C0008DFF48029E493A3F85407240CC8C333ED
:10082C00C4540F4420C8834004F456800146F6DFBC
:10083C00E4800B01020408102040809009FFE47E44
:10084C00019360BCA3FF543F30E509541FFEE493B1
:10085C00A360010ECF54C025E060A840B8E493A378
:10086C00FAE493A3F8E493A3C8C582C8CAC583CAA3
:10087C00F0A3C8C582C8CAC583CADFE9DEE780BE5B
:010A0E0000E7
:00000001FF
